:100000000C9434000C9451000C9451000C94510049
:100010000C9451000C9451000C9451000C9451001C
:100020000C9451000C9451000C9451000C9451000C
:100030000C9451000C9451000C9451000C945100FC
:100040000C9451000C9451000C9451000C945100EC
:100050000C9451000C9451000C9451000C945100DC
:100060000C9451000C94510011241FBECFEFD8E026
:10007000DEBFCDBF11E0A0E0B1E0E0E6F3E002C0FA
:1000800005900D92A231B107D9F721E0A2E1B1E0CC
:1000900001C01D92A032B207E1F70E942E010C941C
:1000A000AE010C9400001092C50084E48093C4005B
:1000B000E1ECF0E0808188608083808180618083D2
:1000C00086E08093C20008958091C00087FFFCCF36
:1000D0008091C60008959091C00095FFFCCF809359
:1000E000C6000895CF93DF93EC018991882319F01E
:1000F0000E946B00FACFDF91CF910895CF93DF93E9
:1001000082E191E090931D0180931C01C0911C013C
:10011000D0911D010E94640088838D3031F02196BA
:10012000D0931D01C0931C01F1CF82E191E0DF91DA
:10013000CF91089520E030E0281739074CF4EFE91B
:10014000FFE03197F1F700C000002F5F3F4FF4CF81
:100150000895CF93DF93EC018991882319F00E94D1
:100160006B00FACFDF91CF910895EF92FF920F933A
:100170001F93CF93DF93CDB7DEB764970FB6F89494
:10018000DEBF0FBECDBF7B018A0121E1E0E0F1E0DF
:10019000DE01119601900D922A95E1F71C8A21E06B
:1001A00030E010161106D4F4B7010E948601E1E098
:1001B000F0E0EC0FFD1FE80FF91F8081E2E1F0E0B5
:1001C000EC0FFD1FE20FF31F8083CB01011511051A
:1001D00011F00150110921503109E3CF1816190609
:1001E0001CF3C901019622E130E02C0F3D1F820F64
:1001F000931F0E94A90064960FB6F894DEBF0FBE4D
:10020000CDBFDF91CF911F910F91FF90EF90089597
:1002100093E890937A0080937C0080917C00806CBE
:1002200080937C0080917A00806480937A00809132
:100230007A0086FDFCCF80917A00806480937A00FA
:1002400080917A0086FDFCCF80917A008F77809331
:100250007A00809178009091790008950E9453006F
:100260005A9A5B9A5C9A459A449A439A209A569A6B
:100270008EE387BD84B5806484BD84B5826084BD0F
:1002800085B5826085BD15B881E04A9907C056984A
:1002900085B9EFE1FEE43197F1F70BC04B990DC042
:1002A000569885B9FFEF2FE037E2F15020403040FB
:1002B000E1F700C00000569AE8CF4C990AC0569862
:1002C00085B99FEFE3EEF7E59150E040F040E1F7AC
:1002D000F0CF34990AC0569885B92FEF37EB98E8DC
:1002E000215030409040E1F7E4CF35990AC056984C
:1002F00085B9EFEFF9EA24EBE150F0402040E1F757
:10030000D8CF3399C2CF569A85B9BFCF97FB072E66
:1003100016F4009407D077FD09D00E949A0107FCDB
:1003200005D03EF4909581959F4F08957095619505
:100330007F4F0895AA1BBB1B51E107C0AA1FBB1F1B
:10034000A617B70710F0A61BB70B881F991F5A9561
:10035000A9F780959095BC01CD010895F894FFCF41
:1003600030313233343536373839414243444546EB
:0203700000008B
:00000001FF
